{
  "contractName": "Blood1",
  "abi": [
    {
      "inputs": [
        {
          "internalType": "string",
          "name": "document",
          "type": "string"
        }
      ],
      "name": "notarize",
      "outputs": [],
      "stateMutability": "nonpayable",
      "type": "function"
    },
    {
      "inputs": [
        {
          "internalType": "string",
          "name": "document",
          "type": "string"
        }
      ],
      "name": "checkDocument",
      "outputs": [
        {
          "internalType": "bool",
          "name": "",
          "type": "bool"
        }
      ],
      "stateMutability": "view",
      "type": "function"
    }
  ],
  "bytecode": "0x608060405234801561001057600080fd5b5061044d806100206000396000f3fe608060405234801561001057600080fd5b50600436106100365760003560e01c806353fb92331461003b5780637183616c1461006b575b600080fd5b610055600480360381019061005091906102ad565b610087565b6040516100629190610311565b60405180910390f35b610085600480360381019061008091906102ad565b6100b8565b005b6000806000610095846100cc565b815260200190815260200160002060009054906101000a900460ff169050919050565b6100c96100c4826100cc565b610125565b50565b60006002826040516100de919061039d565b602060405180830381855afa1580156100fb573d6000803e3d6000fd5b5050506040513d601f19601f8201168201806040525081019061011e91906103ea565b9050919050565b600160008083815260200190815260200160002060006101000a81548160ff02191690831515021790555050565b6000604051905090565b600080fd5b600080fd5b600080fd5b600080fd5b6000601f19601f8301169050919050565b7f4e487b7100000000000000000000000000000000000000000000000000000000600052604160045260246000fd5b6101ba82610171565b810181811067ffffffffffffffff821117156101d9576101d8610182565b5b80604052505050565b60006101ec610153565b90506101f882826101b1565b919050565b600067ffffffffffffffff82111561021857610217610182565b5b61022182610171565b9050602081019050919050565b82818337600083830152505050565b600061025061024b846101fd565b6101e2565b90508281526020810184848401111561026c5761026b61016c565b5b61027784828561022e565b509392505050565b600082601f83011261029457610293610167565b5b81356102a484826020860161023d565b91505092915050565b6000602082840312156102c3576102c261015d565b5b600082013567ffffffffffffffff8111156102e1576102e0610162565b5b6102ed8482850161027f565b91505092915050565b60008115159050919050565b61030b816102f6565b82525050565b60006020820190506103266000830184610302565b92915050565b600081519050919050565b600081905092915050565b60005b83811015610360578082015181840152602081019050610345565b60008484015250505050565b60006103778261032c565b6103818185610337565b9350610391818560208601610342565b80840191505092915050565b60006103a9828461036c565b915081905092915050565b6000819050919050565b6103c7816103b4565b81146103d257600080fd5b50565b6000815190506103e4816103be565b92915050565b600060208284031215610400576103ff61015d565b5b600061040e848285016103d5565b9150509291505056fea264697066735822122087774ecb081d7364425d7f4726476994f697af50a7ba5cc19c1bd419e41fa6c864736f6c63430008120033",
  "immutableReferences": {},
  "source": "// pragma solidity >=0.8.18;\r\n\r\n// contract faucet{\r\n//     uint public number=340;\r\n//     int public num= -133;\r\n    \r\n// }\r\n// contract Blood{\r\n//     uint public number=340;\r\n//     int public num= -133;\r\n    \r\n// }\r\n\r\n// SPDX-License-Identifier: MIT\r\npragma solidity >=0.8.18;\r\n \r\ncontract Blood1 {\r\n  //---store the hash of the strings---\r\n  mapping (bytes32 => bool) private proofs;\r\n \r\n  //--------------------------------------------------\r\n  // Store a proof of existence in the contract state\r\n  //--------------------------------------------------\r\n  function storeProof(bytes32 proof) private {\r\n    // use the hash as the key\r\n    proofs[proof] = true;\r\n  }\r\n  \r\n  //----------------------------------------------\r\n  // Calculate and store the proof for a document\r\n  //----------------------------------------------\r\n  function notarize(string memory document) public {\r\n    // call storeProof() with the hash of the string\r\n    storeProof(proofFor(document));\r\n  }\r\n  \r\n  //--------------------------------------------\r\n  // Helper function to get a document's sha256\r\n  //--------------------------------------------\r\n  // Takes in a string and returns the hash of the string\r\n  function proofFor(string memory document) private pure \r\n  returns (bytes32) {\r\n    // converts the string into bytes array and then hash it\r\n    return sha256(bytes(document));\r\n  }\r\n  \r\n  //----------------------------------------\r\n  // Check if a document has been notarized\r\n  //----------------------------------------\r\n  function checkDocument(string memory document) public view \r\n  returns (bool){\r\n    // use the hash of the string and check the proofs mapping\r\n    // object\r\n    return proofs[proofFor(document)];\r\n  }\r\n}\r\n\r\n\r\n\r\n",
  "sourcePath": "C:\\Users\\HP\\DjangoWorkspace\\bloodbankmanagement-master_19223\\chain1\\contracts\\Blood1.sol",
  "compiler": {
    "name": "solc",
    "version": "0.8.18+commit.87f61d96.Emscripten.clang"
  },
  "schemaVersion": "3.4.12",
  "updatedAt": "2023-03-08T11:51:53.923Z",
  "devdoc": {
    "kind": "dev",
    "methods": {},
    "version": 1
  },
  "userdoc": {
    "kind": "user",
    "methods": {},
    "version": 1
  }
}