{
  "contractName": "faucet",
  "abi": [
    {
      "inputs": [],
      "name": "num",
      "outputs": [
        {
          "internalType": "int256",
          "name": "",
          "type": "int256"
        }
      ],
      "stateMutability": "view",
      "type": "function"
    },
    {
      "inputs": [],
      "name": "number",
      "outputs": [
        {
          "internalType": "uint256",
          "name": "",
          "type": "uint256"
        }
      ],
      "stateMutability": "view",
      "type": "function"
    }
  ],
  "bytecode": "0x60806040526101546000557fffffffffffffffffffffffffffffffffffffffffffffffffffffffffffffff7b60015534801561003a57600080fd5b5061010d8061004a6000396000f3fe6080604052348015600f57600080fd5b506004361060325760003560e01c80634e70b1dc1460375780638381f58a146051575b600080fd5b603d606b565b60405160489190608e565b60405180910390f35b60576071565b6040516062919060be565b60405180910390f35b60015481565b60005481565b6000819050919050565b6088816077565b82525050565b600060208201905060a160008301846081565b92915050565b6000819050919050565b60b88160a7565b82525050565b600060208201905060d1600083018460b1565b9291505056fea26469706673582212208fcdbff5329add27c33eb86a50b842807e8516d353d75af3bbb5375e1a03a61764736f6c63430008120033",
  "immutableReferences": {},
  "source": "pragma solidity >=0.8.18;\r\n\r\ncontract faucet{\r\n    uint public number=340;\r\n    int public num= -133;\r\n    \r\n}\r\ncontract Blood{\r\n    uint public number=340;\r\n    int public num= -133;\r\n    \r\n}\r\n\r\n\r\n\r\n",
  "sourcePath": "C:\\Users\\HP\\DjangoWorkspace\\bloodbankmanagement-master_19223\\chain1\\contracts\\Blood.sol",
  "compiler": {
    "name": "solc",
    "version": "0.8.18+commit.87f61d96.Emscripten.clang"
  },
  "schemaVersion": "3.4.12",
  "updatedAt": "2023-03-04T04:27:47.859Z",
  "devdoc": {
    "kind": "dev",
    "methods": {},
    "version": 1
  },
  "userdoc": {
    "kind": "user",
    "methods": {},
    "version": 1
  }
}