{
  "contractName": "Hospital",
  "abi": [
    {
      "inputs": [],
      "stateMutability": "nonpayable",
      "type": "constructor"
    },
    {
      "inputs": [
        {
          "internalType": "uint256",
          "name": "hospital_id",
          "type": "uint256"
        },
        {
          "internalType": "string",
          "name": "_hospital_name",
          "type": "string"
        },
        {
          "internalType": "string",
          "name": "_hospital_address",
          "type": "string"
        },
        {
          "internalType": "string",
          "name": "_hospital_spec",
          "type": "string"
        }
      ],
      "name": "store_doctor_details",
      "outputs": [],
      "stateMutability": "nonpayable",
      "type": "function"
    },
    {
      "inputs": [
        {
          "internalType": "uint256",
          "name": "hospital_id",
          "type": "uint256"
        }
      ],
      "name": "retreive_hospital_details",
      "outputs": [
        {
          "internalType": "string",
          "name": "",
          "type": "string"
        },
        {
          "internalType": "string",
          "name": "",
          "type": "string"
        },
        {
          "internalType": "string",
          "name": "",
          "type": "string"
        }
      ],
      "stateMutability": "view",
      "type": "function"
    }
  ],
  "bytecode": "0x608060405234801561001057600080fd5b5033600460006101000a81548173ffffffffffffffffffffffffffffffffffffffff021916908373ffffffffffffffffffffffffffffffffffffffff160217905550610b67806100616000396000f3fe608060405234801561001057600080fd5b50600436106100365760003560e01c80631ae73fe11461003b578063c1a4cfb614610057575b600080fd5b61005560048036038101906100509190610536565b610089565b005b610071600480360381019061006c91906105f1565b6101ad565b6040516100809392919061069d565b60405180910390f35b600460009054906101000a900473ffffffffffffffffffffffffffffffffffffffff1673ffffffffffffffffffffffffffffffffffffffff163373ffffffffffffffffffffffffffffffffffffffff1614610119576040517f08c379a000000000000000000000000000000000000000000000000000000000815260040161011090610735565b60405180910390fd5b826001600001908161012b9190610961565b508160018001908161013d9190610961565b5080600160020190816101509190610961565b506001600080868152602001908152602001600020600082018160000190816101799190610a49565b506001820181600101908161018e9190610a49565b50600282018160020190816101a39190610a49565b5090505050505050565b606080606060008060008681526020019081526020016000206040518060600160405290816000820180546101e190610784565b80601f016020809104026020016040519081016040528092919081815260200182805461020d90610784565b801561025a5780601f1061022f5761010080835404028352916020019161025a565b820191906000526020600020905b81548152906001019060200180831161023d57829003601f168201915b5050505050815260200160018201805461027390610784565b80601f016020809104026020016040519081016040528092919081815260200182805461029f90610784565b80156102ec5780601f106102c1576101008083540402835291602001916102ec565b820191906000526020600020905b8154815290600101906020018083116102cf57829003601f168201915b5050505050815260200160028201805461030590610784565b80601f016020809104026020016040519081016040528092919081815260200182805461033190610784565b801561037e5780601f106103535761010080835404028352916020019161037e565b820191906000526020600020905b81548152906001019060200180831161036157829003601f168201915b5050505050815250509050806000015181602001518260400151935093509350509193909250565b6000604051905090565b600080fd5b600080fd5b6000819050919050565b6103cd816103ba565b81146103d857600080fd5b50565b6000813590506103ea816103c4565b92915050565b600080fd5b600080fd5b6000601f19601f8301169050919050565b7f4e487b7100000000000000000000000000000000000000000000000000000000600052604160045260246000fd5b610443826103fa565b810181811067ffffffffffffffff821117156104625761046161040b565b5b80604052505050565b60006104756103a6565b9050610481828261043a565b919050565b600067ffffffffffffffff8211156104a1576104a061040b565b5b6104aa826103fa565b9050602081019050919050565b82818337600083830152505050565b60006104d96104d484610486565b61046b565b9050828152602081018484840111156104f5576104f46103f5565b5b6105008482856104b7565b509392505050565b600082601f83011261051d5761051c6103f0565b5b813561052d8482602086016104c6565b91505092915050565b600080600080608085870312156105505761054f6103b0565b5b600061055e878288016103db565b945050602085013567ffffffffffffffff81111561057f5761057e6103b5565b5b61058b87828801610508565b935050604085013567ffffffffffffffff8111156105ac576105ab6103b5565b5b6105b887828801610508565b925050606085013567ffffffffffffffff8111156105d9576105d86103b5565b5b6105e587828801610508565b91505092959194509250565b600060208284031215610607576106066103b0565b5b6000610615848285016103db565b91505092915050565b600081519050919050565b600082825260208201905092915050565b60005b8381101561065857808201518184015260208101905061063d565b60008484015250505050565b600061066f8261061e565b6106798185610629565b935061068981856020860161063a565b610692816103fa565b840191505092915050565b600060608201905081810360008301526106b78186610664565b905081810360208301526106cb8185610664565b905081810360408301526106df8184610664565b9050949350505050565b7f416363657373206973206e6f7420616c6c6f7765640000000000000000000000600082015250565b600061071f601583610629565b915061072a826106e9565b602082019050919050565b6000602082019050818103600083015261074e81610712565b9050919050565b7f4e487b7100000000000000000000000000000000000000000000000000000000600052602260045260246000fd5b6000600282049050600182168061079c57607f821691505b6020821081036107af576107ae610755565b5b50919050565b60008190508160005260206000209050919050565b60006020601f8301049050919050565b600082821b905092915050565b6000600883026108177fffffffffffffffffffffffffffffffffffffffffffffffffffffffffffffffff826107da565b61082186836107da565b95508019841693508086168417925050509392505050565b6000819050919050565b600061085e610859610854846103ba565b610839565b6103ba565b9050919050565b6000819050919050565b61087883610843565b61088c61088482610865565b8484546107e7565b825550505050565b600090565b6108a1610894565b6108ac81848461086f565b505050565b5b818110156108d0576108c5600082610899565b6001810190506108b2565b5050565b601f821115610915576108e6816107b5565b6108ef846107ca565b810160208510156108fe578190505b61091261090a856107ca565b8301826108b1565b50505b505050565b600082821c905092915050565b60006109386000198460080261091a565b1980831691505092915050565b60006109518383610927565b9150826002028217905092915050565b61096a8261061e565b67ffffffffffffffff8111156109835761098261040b565b5b61098d8254610784565b6109988282856108d4565b600060209050601f8311600181146109cb57600084156109b9578287015190505b6109c38582610945565b865550610a2b565b601f1984166109d9866107b5565b60005b82811015610a01578489015182556001820191506020850194506020810190506109dc565b86831015610a1e5784890151610a1a601f891682610927565b8355505b6001600288020188555050505b505050505050565b600081549050610a4281610784565b9050919050565b818103610a57575050610b2f565b610a6082610a33565b67ffffffffffffffff811115610a7957610a7861040b565b5b610a838254610784565b610a8e8282856108d4565b6000601f831160018114610abd5760008415610aab578287015490505b610ab58582610945565b865550610b28565b601f198416610acb876107b5565b9650610ad6866107b5565b60005b82811015610afe57848901548255600182019150600185019450602081019050610ad9565b86831015610b1b5784890154610b17601f891682610927565b8355505b6001600288020188555050505b5050505050505b56fea26469706673582212204f7e294ba4d24656bf8f7a440a2dfc4e7b4b27bf637cc59af1fcd5f95e707ef464736f6c63430008120033",
  "immutableReferences": {},
  "source": "pragma solidity >=0.8.18;\r\n/**\r\n * @title Hospital Registration\r\n * @dev Store & retreive Hospital details \r\n */\r\n \r\ncontract Hospital  {\r\n    \r\n     \r\n      mapping(uint256 => hospital) hospitallist;\r\n      \r\n    \r\n     struct hospital{\r\n         string hospital_name;\r\n         string hospital_address;\r\n         string hospital_spec;\r\n     }\r\n     hospital h;\r\n     \r\n     address owner;\r\n     \r\n      \r\n    \r\n      constructor() public {\r\n          owner = msg.sender;\r\n      }\r\n      \r\n      \r\n      // modifier to give access only to hospital\r\n      modifier isOwner() {\r\n\r\n         require(msg.sender == owner, \"Access is not allowed\");\r\n\r\n         _;\r\n\r\n     }\r\n      \r\n     \r\n     \r\n    \r\n    \r\n     /**\r\n     * @dev Store hospital details\r\n     * @param hospital_id hospital registration id\r\n     * @param _hospital_name name of hospital\r\n     * @param _hospital_spec hospital specialisation\r\n     * @param _hospital_address hospital address\r\n     * */\r\n     function store_doctor_details(uint256 hospital_id,string memory _hospital_name,string memory _hospital_address,string memory _hospital_spec)public isOwner {\r\n        \r\n         h.hospital_name = _hospital_name;\r\n         h.hospital_address = _hospital_address;\r\n         h.hospital_spec = _hospital_spec;\r\n         \r\n         \r\n        hospitallist[hospital_id] = h;\r\n        \r\n        \r\n         }\r\n         \r\n        \r\n           /**\r\n     * @dev Retreive hospital details\r\n     * @param hospital_id hospital registration id\r\n     * */\r\n         function retreive_hospital_details(uint256 hospital_id) public view returns (string memory,string memory,string memory){\r\n             \r\n     hospital memory h = hospitallist[hospital_id];\r\n     \r\n     return (h.hospital_name,h.hospital_address,h.hospital_spec);\r\n     \r\n          }\r\n          \r\n          \r\n          \r\n}\r\n",
  "sourcePath": "C:\\Users\\HP\\DjangoWorkspace\\bloodbankmanagement-master_19223\\chain1\\contracts\\hospital.sol",
  "compiler": {
    "name": "solc",
    "version": "0.8.18+commit.87f61d96.Emscripten.clang"
  },
  "schemaVersion": "3.4.12",
  "updatedAt": "2023-03-08T11:51:53.947Z",
  "devdoc": {
    "details": "Store & retreive Hospital details ",
    "kind": "dev",
    "methods": {
      "retreive_hospital_details(uint256)": {
        "details": "Retreive hospital details",
        "params": {
          "hospital_id": "hospital registration id "
        }
      },
      "store_doctor_details(uint256,string,string,string)": {
        "details": "Store hospital details",
        "params": {
          "_hospital_address": "hospital address ",
          "_hospital_name": "name of hospital",
          "_hospital_spec": "hospital specialisation",
          "hospital_id": "hospital registration id"
        }
      }
    },
    "title": "Hospital Registration",
    "version": 1
  },
  "userdoc": {
    "kind": "user",
    "methods": {},
    "version": 1
  }
}