{
  "contractName": "Patient",
  "abi": [
    {
      "inputs": [],
      "stateMutability": "nonpayable",
      "type": "constructor"
    },
    {
      "inputs": [
        {
          "internalType": "uint256",
          "name": "patient_id",
          "type": "uint256"
        },
        {
          "internalType": "string",
          "name": "_patient_name",
          "type": "string"
        },
        {
          "internalType": "uint256",
          "name": "_age",
          "type": "uint256"
        },
        {
          "internalType": "string",
          "name": "_gender",
          "type": "string"
        },
        {
          "internalType": "string",
          "name": "_height",
          "type": "string"
        },
        {
          "internalType": "uint256",
          "name": "_weight",
          "type": "uint256"
        },
        {
          "internalType": "string",
          "name": "_patient_address",
          "type": "string"
        },
        {
          "internalType": "uint256",
          "name": "_phone_no",
          "type": "uint256"
        },
        {
          "internalType": "string",
          "name": "_email_id",
          "type": "string"
        },
        {
          "internalType": "uint256",
          "name": "_date",
          "type": "uint256"
        }
      ],
      "name": "store_patient_details",
      "outputs": [],
      "stateMutability": "nonpayable",
      "type": "function"
    },
    {
      "inputs": [
        {
          "internalType": "uint256",
          "name": "patient_id",
          "type": "uint256"
        },
        {
          "internalType": "string",
          "name": "_attendant_name",
          "type": "string"
        },
        {
          "internalType": "string",
          "name": "_attendant_relation",
          "type": "string"
        },
        {
          "internalType": "uint256",
          "name": "_attendant_phn_no",
          "type": "uint256"
        }
      ],
      "name": "store_attendant_details",
      "outputs": [],
      "stateMutability": "nonpayable",
      "type": "function"
    },
    {
      "inputs": [
        {
          "internalType": "uint256",
          "name": "patient_id",
          "type": "uint256"
        }
      ],
      "name": "retreive_patient_details",
      "outputs": [
        {
          "internalType": "string",
          "name": "",
          "type": "string"
        },
        {
          "internalType": "uint256",
          "name": "",
          "type": "uint256"
        },
        {
          "internalType": "string",
          "name": "",
          "type": "string"
        },
        {
          "internalType": "string",
          "name": "",
          "type": "string"
        },
        {
          "internalType": "uint256",
          "name": "",
          "type": "uint256"
        },
        {
          "internalType": "string",
          "name": "",
          "type": "string"
        },
        {
          "internalType": "uint256",
          "name": "",
          "type": "uint256"
        },
        {
          "internalType": "string",
          "name": "",
          "type": "string"
        },
        {
          "internalType": "uint256",
          "name": "",
          "type": "uint256"
        }
      ],
      "stateMutability": "view",
      "type": "function"
    },
    {
      "inputs": [
        {
          "internalType": "uint256",
          "name": "patient_id",
          "type": "uint256"
        }
      ],
      "name": "retreive_attendant_details",
      "outputs": [
        {
          "internalType": "string",
          "name": "",
          "type": "string"
        },
        {
          "internalType": "string",
          "name": "",
          "type": "string"
        },
        {
          "internalType": "uint256",
          "name": "",
          "type": "uint256"
        }
      ],
      "stateMutability": "view",
      "type": "function"
    }
  ],
  "bytecode": "0x608060405234801561001057600080fd5b5073e6005cc724c2d44f0af23d663017a7e375dd7f35601160006101000a81548173ffffffffffffffffffffffffffffffffffffffff021916908373ffffffffffffffffffffffffffffffffffffffff1602179055506112d0806100756000396000f3fe608060405234801561001057600080fd5b506004361061004c5760003560e01c806365d4352a14610051578063c909f8f714610089578063d734f9b7146100a5578063f5b31bfe146100d7575b600080fd5b61006b60048036038101906100669190610952565b6100f3565b60405161008099989796959493929190610a1e565b60405180910390f35b6100a3600480360381019061009e9190610c03565b610489565b005b6100bf60048036038101906100ba9190610952565b610667565b6040516100ce93929190610d6e565b60405180910390f35b6100f160048036038101906100ec9190610db3565b6107e2565b005b6060600060608060006060600060606000806000808c81526020019081526020016000206040518061016001604052908160008201805461013390610e81565b80601f016020809104026020016040519081016040528092919081815260200182805461015f90610e81565b80156101ac5780601f10610181576101008083540402835291602001916101ac565b820191906000526020600020905b81548152906001019060200180831161018f57829003601f168201915b50505050508152602001600182015481526020016002820180546101cf90610e81565b80601f01602080910402602001604051908101604052809291908181526020018280546101fb90610e81565b80156102485780601f1061021d57610100808354040283529160200191610248565b820191906000526020600020905b81548152906001019060200180831161022b57829003601f168201915b5050505050815260200160038201805461026190610e81565b80601f016020809104026020016040519081016040528092919081815260200182805461028d90610e81565b80156102da5780601f106102af576101008083540402835291602001916102da565b820191906000526020600020905b8154815290600101906020018083116102bd57829003601f168201915b50505050508152602001600482015481526020016005820180546102fd90610e81565b80601f016020809104026020016040519081016040528092919081815260200182805461032990610e81565b80156103765780601f1061034b57610100808354040283529160200191610376565b820191906000526020600020905b81548152906001019060200180831161035957829003601f168201915b505050505081526020016006820154815260200160078201805461039990610e81565b80601f01602080910402602001604051908101604052809291908181526020018280546103c590610e81565b80156104125780601f106103e757610100808354040283529160200191610412565b820191906000526020600020905b8154815290600101906020018083116103f557829003601f168201915b505050505081526020016008820154815260200160098201548152602001600a820154815250509050806000015181602001518260400151836060015184608001518560a001518660c001518760e00151886101000151995099509950995099509950995099509950509193959799909294969850565b601160009054906101000a900473ffffffffffffffffffffffffffffffffffffffff1673ffffffffffffffffffffffffffffffffffffffff163373ffffffffffffffffffffffffffffffffffffffff1614610519576040517f08c379a000000000000000000000000000000000000000000000000000000000815260040161051090610efe565b60405180910390fd5b886002600001908161052b91906110ca565b50876002600101819055508660028001908161054791906110ca565b50856002600301908161055a91906110ca565b5084600260040181905550836002600501908161057791906110ca565b5082600260060181905550816002600701908161059491906110ca565b508060026008018190555060026000808c8152602001908152602001600020600082018160000190816105c791906111b2565b5060018201548160010155600282018160020190816105e691906111b2565b50600382018160030190816105fb91906111b2565b50600482015481600401556005820181600501908161061a91906111b2565b50600682015481600601556007820181600701908161063991906111b2565b506008820154816008015560098201548160090155600a82015481600a015590505050505050505050505050565b60608060008060016000868152602001908152602001600020604051806080016040529081600082015481526020016001820180546106a590610e81565b80601f01602080910402602001604051908101604052809291908181526020018280546106d190610e81565b801561071e5780601f106106f35761010080835404028352916020019161071e565b820191906000526020600020905b81548152906001019060200180831161070157829003601f168201915b5050505050815260200160028201805461073790610e81565b80601f016020809104026020016040519081016040528092919081815260200182805461076390610e81565b80156107b05780601f10610785576101008083540402835291602001916107b0565b820191906000526020600020905b81548152906001019060200180831161079357829003601f168201915b505050505081526020016003820154815250509050806020015181604001518260600151935093509350509193909250565b601160009054906101000a900473ffffffffffffffffffffffffffffffffffffffff1673ffffffffffffffffffffffffffffffffffffffff163373ffffffffffffffffffffffffffffffffffffffff1614610872576040517f08c379a000000000000000000000000000000000000000000000000000000000815260040161086990610efe565b60405180910390fd5b83600d6000018190555082600d600101908161088e91906110ca565b5081600d60020190816108a191906110ca565b5080600d60030181905550600d6001600086815260200190815260200160002060008201548160000155600182018160010190816108df91906111b2565b50600282018160020190816108f491906111b2565b506003820154816003015590505050505050565b6000604051905090565b600080fd5b600080fd5b6000819050919050565b61092f8161091c565b811461093a57600080fd5b50565b60008135905061094c81610926565b92915050565b60006020828403121561096857610967610912565b5b60006109768482850161093d565b91505092915050565b600081519050919050565b600082825260208201905092915050565b60005b838110156109b957808201518184015260208101905061099e565b60008484015250505050565b6000601f19601f8301169050919050565b60006109e18261097f565b6109eb818561098a565b93506109fb81856020860161099b565b610a04816109c5565b840191505092915050565b610a188161091c565b82525050565b6000610120820190508181036000830152610a39818c6109d6565b9050610a48602083018b610a0f565b8181036040830152610a5a818a6109d6565b90508181036060830152610a6e81896109d6565b9050610a7d6080830188610a0f565b81810360a0830152610a8f81876109d6565b9050610a9e60c0830186610a0f565b81810360e0830152610ab081856109d6565b9050610ac0610100830184610a0f565b9a9950505050505050505050565b600080fd5b600080fd5b7f4e487b7100000000000000000000000000000000000000000000000000000000600052604160045260246000fd5b610b10826109c5565b810181811067ffffffffffffffff82111715610b2f57610b2e610ad8565b5b80604052505050565b6000610b42610908565b9050610b4e8282610b07565b919050565b600067ffffffffffffffff821115610b6e57610b6d610ad8565b5b610b77826109c5565b9050602081019050919050565b82818337600083830152505050565b6000610ba6610ba184610b53565b610b38565b905082815260208101848484011115610bc257610bc1610ad3565b5b610bcd848285610b84565b509392505050565b600082601f830112610bea57610be9610ace565b5b8135610bfa848260208601610b93565b91505092915050565b6000806000806000806000806000806101408b8d031215610c2757610c26610912565b5b6000610c358d828e0161093d565b9a505060208b013567ffffffffffffffff811115610c5657610c55610917565b5b610c628d828e01610bd5565b9950506040610c738d828e0161093d565b98505060608b013567ffffffffffffffff811115610c9457610c93610917565b5b610ca08d828e01610bd5565b97505060808b013567ffffffffffffffff811115610cc157610cc0610917565b5b610ccd8d828e01610bd5565b96505060a0610cde8d828e0161093d565b95505060c08b013567ffffffffffffffff811115610cff57610cfe610917565b5b610d0b8d828e01610bd5565b94505060e0610d1c8d828e0161093d565b9350506101008b013567ffffffffffffffff811115610d3e57610d3d610917565b5b610d4a8d828e01610bd5565b925050610120610d5c8d828e0161093d565b9150509295989b9194979a5092959850565b60006060820190508181036000830152610d8881866109d6565b90508181036020830152610d9c81856109d6565b9050610dab6040830184610a0f565b949350505050565b60008060008060808587031215610dcd57610dcc610912565b5b6000610ddb8782880161093d565b945050602085013567ffffffffffffffff811115610dfc57610dfb610917565b5b610e0887828801610bd5565b935050604085013567ffffffffffffffff811115610e2957610e28610917565b5b610e3587828801610bd5565b9250506060610e468782880161093d565b91505092959194509250565b7f4e487b7100000000000000000000000000000000000000000000000000000000600052602260045260246000fd5b60006002820490506001821680610e9957607f821691505b602082108103610eac57610eab610e52565b5b50919050565b7f416363657373206973206e6f7420616c6c6f7765640000000000000000000000600082015250565b6000610ee860158361098a565b9150610ef382610eb2565b602082019050919050565b60006020820190508181036000830152610f1781610edb565b9050919050565b60008190508160005260206000209050919050565b60006020601f8301049050919050565b600082821b905092915050565b600060088302610f807fffffffffffffffffffffffffffffffffffffffffffffffffffffffffffffffff82610f43565b610f8a8683610f43565b95508019841693508086168417925050509392505050565b6000819050919050565b6000610fc7610fc2610fbd8461091c565b610fa2565b61091c565b9050919050565b6000819050919050565b610fe183610fac565b610ff5610fed82610fce565b848454610f50565b825550505050565b600090565b61100a610ffd565b611015818484610fd8565b505050565b5b818110156110395761102e600082611002565b60018101905061101b565b5050565b601f82111561107e5761104f81610f1e565b61105884610f33565b81016020851015611067578190505b61107b61107385610f33565b83018261101a565b50505b505050565b600082821c905092915050565b60006110a160001984600802611083565b1980831691505092915050565b60006110ba8383611090565b9150826002028217905092915050565b6110d38261097f565b67ffffffffffffffff8111156110ec576110eb610ad8565b5b6110f68254610e81565b61110182828561103d565b600060209050601f8311600181146111345760008415611122578287015190505b61112c85826110ae565b865550611194565b601f19841661114286610f1e565b60005b8281101561116a57848901518255600182019150602085019450602081019050611145565b868310156111875784890151611183601f891682611090565b8355505b6001600288020188555050505b505050505050565b6000815490506111ab81610e81565b9050919050565b8181036111c0575050611298565b6111c98261119c565b67ffffffffffffffff8111156111e2576111e1610ad8565b5b6111ec8254610e81565b6111f782828561103d565b6000601f8311600181146112265760008415611214578287015490505b61121e85826110ae565b865550611291565b601f19841661123487610f1e565b965061123f86610f1e565b60005b8281101561126757848901548255600182019150600185019450602081019050611242565b868310156112845784890154611280601f891682611090565b8355505b6001600288020188555050505b5050505050505b56fea2646970667358221220eb09094d84e28839f51b5ea78f5e42eddaded7322dc77c9b38f53ccd9b19e21d64736f6c63430008120033",
  "immutableReferences": {},
  "source": "pragma solidity >=0.8.18;\r\n/**\r\n * @title Medical records\r\n * @dev Store & retreive patient details \r\n */\r\n\r\n \r\ncontract Patient {\r\n    \r\n    \r\n    mapping(uint256 => patient) patientlist;\r\n    mapping(uint256 =>attendant) attendantlist;\r\n    \r\n    \r\n     struct patient{\r\n     string patient_name;\r\n     uint256 age;\r\n     string gender;\r\n     string height;\r\n     uint256 weight;\r\n     string patient_address;\r\n     uint256 phone_no;\r\n     string email_id;\r\n     uint256 date;\r\n     uint256 doctor_id;\r\n     uint256 hospital_id;\r\n     }\r\n     patient p;\r\n     \r\n     struct attendant{\r\n         uint256 patient_id;\r\n     string attendant_name;\r\n     string attendant_relation;\r\n     uint256 attendant_phn_no;\r\n     }\r\n     attendant a;\r\n     \r\n     address owner;\r\n     \r\n      constructor()  public {\r\n          owner = 0xE6005Cc724c2d44F0aF23d663017a7E375DD7F35; //Address of Hospital\r\n      }\r\n      \r\n      \r\n      // modifier to give access only to hospital\r\n      modifier isOwner() {\r\n\r\n         require(msg.sender == owner, \"Access is not allowed\");\r\n\r\n         _;\r\n\r\n     }\r\n      \r\n     \r\n     \r\n     \r\n     /**\r\n     * @dev Store patient details\r\n     * @param patient_id patient id\r\n     * @param _patient_name patient name\r\n     * @param _age age\r\n     * @param _gender gender\r\n     * @param _height height\r\n     * @param _weight weight\r\n     * @param _patient_address address\r\n     * @param _phone_no phone number\r\n     * @param _email_id mail id\r\n     * @param _date date\r\n     */\r\n     function store_patient_details(uint256 patient_id,string memory _patient_name,uint256 _age,string memory _gender,string memory _height,uint256 _weight,string memory _patient_address,uint256 _phone_no,string memory _email_id,uint256 _date)public isOwner {\r\n     \r\n        \r\n         p.patient_name=_patient_name;\r\n         p.age=_age;\r\n         p.gender=_gender;\r\n         p.height=_height;\r\n         p.weight=_weight;\r\n         p.patient_address=_patient_address;\r\n         p.phone_no=_phone_no;\r\n         p.email_id=_email_id;\r\n         p.date=_date;\r\n         \r\n        patientlist[patient_id] = p;\r\n         }\r\n         \r\n         \r\n     /**\r\n     * @dev Store attendant details\r\n     * @param patient_id patient id\r\n     * @param _attendant_name name of attendant\r\n     * @param _attendant_relation relation to patient\r\n     * @param _attendant_phn_no phone no\r\n     * */\r\n     function store_attendant_details(uint256 patient_id,string memory _attendant_name,string memory _attendant_relation, uint256 _attendant_phn_no)public isOwner {\r\n         \r\n         a.patient_id = patient_id;\r\n        a.attendant_name=_attendant_name;\r\n         a.attendant_relation=_attendant_relation;\r\n         a.attendant_phn_no=_attendant_phn_no;\r\n         \r\n         attendantlist[patient_id] = a;\r\n     }\r\n     \r\n     \r\n     /**\r\n     * @dev Retreive patient details\r\n     * @param patient_id patient id\r\n     * */\r\n     function retreive_patient_details(uint256 patient_id) public view returns (string memory,uint256,string memory,string memory,uint256,string memory,uint256,string memory,uint256){\r\n         patient memory p = patientlist[patient_id];\r\n         \r\n     return (p.patient_name,p.age,p.gender,p.height,p.weight,p.patient_address,p.phone_no,p.email_id,p.date);\r\n    \r\n     }\r\n     \r\n     \r\n     /**\r\n     * @dev Retreive attendant details\r\n     * @param patient_id patient id\r\n     * */\r\n     function retreive_attendant_details(uint256 patient_id) public view returns (string memory,string memory,uint256){\r\n         \r\n          attendant memory a = attendantlist[patient_id];\r\n          \r\n      return (a.attendant_name,a.attendant_relation,a.attendant_phn_no);\r\n     \r\n     }\r\n     \r\n     \r\n     \r\n}\r\n",
  "sourcePath": "C:\\Users\\HP\\DjangoWorkspace\\bloodbankmanagement-master_19223\\chain1\\contracts\\patient.sol",
  "compiler": {
    "name": "solc",
    "version": "0.8.18+commit.87f61d96.Emscripten.clang"
  },
  "schemaVersion": "3.4.12",
  "updatedAt": "2023-03-08T11:51:53.965Z",
  "devdoc": {
    "details": "Store & retreive patient details ",
    "kind": "dev",
    "methods": {
      "retreive_attendant_details(uint256)": {
        "details": "Retreive attendant details",
        "params": {
          "patient_id": "patient id "
        }
      },
      "retreive_patient_details(uint256)": {
        "details": "Retreive patient details",
        "params": {
          "patient_id": "patient id "
        }
      },
      "store_attendant_details(uint256,string,string,uint256)": {
        "details": "Store attendant details",
        "params": {
          "_attendant_name": "name of attendant",
          "_attendant_phn_no": "phone no ",
          "_attendant_relation": "relation to patient",
          "patient_id": "patient id"
        }
      },
      "store_patient_details(uint256,string,uint256,string,string,uint256,string,uint256,string,uint256)": {
        "details": "Store patient details",
        "params": {
          "_age": "age",
          "_date": "date",
          "_email_id": "mail id",
          "_gender": "gender",
          "_height": "height",
          "_patient_address": "address",
          "_patient_name": "patient name",
          "_phone_no": "phone number",
          "_weight": "weight",
          "patient_id": "patient id"
        }
      }
    },
    "title": "Medical records",
    "version": 1
  },
  "userdoc": {
    "kind": "user",
    "methods": {},
    "version": 1
  }
}